{
  "contractName": "CrowdFunding",
  "abi": [
    {
      "anonymous": false,
      "inputs": [
        {
          "indexed": false,
          "internalType": "address",
          "name": "contractAddress",
          "type": "address"
        },
        {
          "indexed": false,
          "internalType": "address",
          "name": "projectOwner",
          "type": "address"
        },
        {
          "indexed": false,
          "internalType": "string",
          "name": "projectName",
          "type": "string"
        },
        {
          "indexed": false,
          "internalType": "string",
          "name": "projectDesc",
          "type": "string"
        },
        {
          "indexed": false,
          "internalType": "uint256",
          "name": "deadline",
          "type": "uint256"
        },
        {
          "indexed": false,
          "internalType": "uint256",
          "name": "targetFund",
          "type": "uint256"
        }
      ],
      "name": "ProjectStarted",
      "type": "event"
    },
    {
      "constant": false,
      "inputs": [
        {
          "internalType": "string",
          "name": "name",
          "type": "string"
        },
        {
          "internalType": "string",
          "name": "description",
          "type": "string"
        },
        {
          "internalType": "uint256",
          "name": "fundingDays",
          "type": "uint256"
        },
        {
          "internalType": "uint256",
          "name": "targetAmount",
          "type": "uint256"
        }
      ],
      "name": "createProject",
      "outputs": [],
      "payable": false,
      "stateMutability": "nonpayable",
      "type": "function"
    },
    {
      "constant": true,
      "inputs": [],
      "name": "returnAllProjects",
      "outputs": [
        {
          "internalType": "contract Project[]",
          "name": "",
          "type": "address[]"
        }
      ],
      "payable": false,
      "stateMutability": "view",
      "type": "function"
    }
  ],
  "bytecode": "0x608060405234801561001057600080fd5b506115c2806100206000396000f3fe608060405234801561001057600080fd5b50600436106100365760003560e01c806385b6e28e1461003b57806394ba97091461009a575b600080fd5b61004361017c565b6040518080602001828103825283818151815260200191508051906020019060200280838360005b8381101561008657808201518184015260208101905061006b565b505050509050019250505060405180910390f35b61017a600480360360808110156100b057600080fd5b81019080803590602001906401000000008111156100cd57600080fd5b8201836020820111156100df57600080fd5b8035906020019184600183028401116401000000008311171561010157600080fd5b90919293919293908035906020019064010000000081111561012257600080fd5b82018360208201111561013457600080fd5b8035906020019184600183028401116401000000008311171561015657600080fd5b9091929391929390803590602001909291908035906020019092919050505061020a565b005b6060600080548060200260200160405190810160405280929190818152602001828054801561020057602002820191906000526020600020905b8160009054906101000a900473ffffffffffffffffffffffffffffffffffffffff1673ffffffffffffffffffffffffffffffffffffffff16815260200190600101908083116101b6575b5050505050905090565b60006103e8620151808402024201905060003388888888868860405161022f90610475565b808873ffffffffffffffffffffffffffffffffffffffff1673ffffffffffffffffffffffffffffffffffffffff16815260200180602001806020018581526020018481526020018381038352898982818152602001925080828437600081840152601f19601f8201169050808301925050508381038252878782818152602001925080828437600081840152601f19601f8201169050808301925050509950505050505050505050604051809103906000f0801580156102f3573d6000803e3d6000fd5b50905060008190806001815401808255809150509060018203906000526020600020016000909192909190916101000a81548173ffffffffffffffffffffffffffffffffffffffff021916908373ffffffffffffffffffffffffffffffffffffffff160217905550507f6218c120ad6d836da0bfe4d4c44c8375356514fce6ae39ecdcd483fad6056e6681338a8a8a8a888a604051808973ffffffffffffffffffffffffffffffffffffffff1673ffffffffffffffffffffffffffffffffffffffff1681526020018873ffffffffffffffffffffffffffffffffffffffff1673ffffffffffffffffffffffffffffffffffffffff16815260200180602001806020018581526020018481526020018381038352898982818152602001925080828437600081840152601f19601f8201169050808301925050508381038252878782818152602001925080828437600081840152601f19601f8201169050808301925050509a505050505050505050505060405180910390a15050505050505050565b61110b806104838339019056fe60806040526000600760006101000a81548160ff021916908360028111156200002457fe5b02179055503480156200003657600080fd5b506040516200110b3803806200110b833981810160405260a08110156200005c57600080fd5b8101908080519060200190929190805160405193929190846401000000008211156200008757600080fd5b838201915060208201858111156200009e57600080fd5b8251866001820283011164010000000082111715620000bc57600080fd5b8083526020830192505050908051906020019080838360005b83811015620000f2578082015181840152602081019050620000d5565b50505050905090810190601f168015620001205780820380516001836020036101000a031916815260200191505b50604052602001805160405193929190846401000000008211156200014457600080fd5b838201915060208201858111156200015b57600080fd5b82518660018202830111640100000000821117156200017957600080fd5b8083526020830192505050908051906020019080838360005b83811015620001af57808201518184015260208101905062000192565b50505050905090810190601f168015620001dd5780820380516001836020036101000a031916815260200191505b506040526020018051906020019092919080519060200190929190505050846000806101000a81548173ffffffffffffffffffffffffffffffffffffffff021916908373ffffffffffffffffffffffffffffffffffffffff1602179055508360059080519060200190620002539291906200028e565b5082600690805190602001906200026c9291906200028e565b508060018190555081600481905550600060038190555050505050506200033d565b828054600181600116156101000203166002900490600052602060002090601f016020900481019282601f10620002d157805160ff191683800117855562000302565b8280016001018555821562000302579182015b8281111562000301578251825591602001919060010190620002e4565b5b50905062000311919062000315565b5090565b6200033a91905b80821115620003365760008160009055506001016200031c565b5090565b90565b610dbe806200034d6000396000f3fe6080604052600436106100c25760003560e01c80637284e4161161007f578063b2d5ae4411610059578063b2d5ae4414610345578063c19d93fb14610374578063ce845d1d146103ad578063fbbf93a0146103d8576100c2565b80637284e4161461029457806386f325861461032457806388ffe8671461033b576100c2565b806302d05d3f146100c75780630785001c1461011e57806337f944cc1461014957806342e94c90146101745780634a79d50c146101d95780634c4cea5a14610269575b600080fd5b3480156100d357600080fd5b506100dc610531565b604051808273ffffffffffffffffffffffffffffffffffffffff1673ffffffffffffffffffffffffffffffffffffffff16815260200191505060405180910390f35b34801561012a57600080fd5b50610133610556565b6040518082815260200191505060405180910390f35b34801561015557600080fd5b5061015e61055c565b6040518082815260200191505060405180910390f35b34801561018057600080fd5b506101c36004803603602081101561019757600080fd5b81019080803573ffffffffffffffffffffffffffffffffffffffff169060200190929190505050610562565b6040518082815260200191505060405180910390f35b3480156101e557600080fd5b506101ee61057a565b6040518080602001828103825283818151815260200191508051906020019080838360005b8381101561022e578082015181840152602081019050610213565b50505050905090810190601f16801561025b5780820380516001836020036101000a031916815260200191505b509250505060405180910390f35b34801561027557600080fd5b5061027e610618565b6040518082815260200191505060405180910390f35b3480156102a057600080fd5b506102a961061e565b6040518080602001828103825283818151815260200191508051906020019080838360005b838110156102e95780820151818401526020810190506102ce565b50505050905090810190601f1680156103165780820380516001836020036101000a031916815260200191505b509250505060405180910390f35b34801561033057600080fd5b506103396106bc565b005b610343610732565b005b34801561035157600080fd5b5061035a6108cf565b604051808215151515815260200191505060405180910390f35b34801561038057600080fd5b50610389610a7b565b6040518082600281111561039957fe5b60ff16815260200191505060405180910390f35b3480156103b957600080fd5b506103c2610a8e565b6040518082815260200191505060405180910390f35b3480156103e457600080fd5b506103ed610a94565b604051808873ffffffffffffffffffffffffffffffffffffffff1673ffffffffffffffffffffffffffffffffffffffff168152602001806020018060200187815260200186600281111561043d57fe5b60ff168152602001858152602001848152602001838103835289818151815260200191508051906020019080838360005b8381101561048957808201518184015260208101905061046e565b50505050905090810190601f1680156104b65780820380516001836020036101000a031916815260200191505b50838103825288818151815260200191508051906020019080838360005b838110156104ef5780820151818401526020810190506104d4565b50505050905090810190601f16801561051c5780820380516001836020036101000a031916815260200191505b50995050505050505050505060405180910390f35b6000809054906101000a900473ffffffffffffffffffffffffffffffffffffffff1681565b60015481565b60045481565b60086020528060005260406000206000915090505481565b60058054600181600116156101000203166002900480601f0160208091040260200160405190810160405280929190818152602001828054600181600116156101000203166002900480156106105780601f106105e557610100808354040283529160200191610610565b820191906000526020600020905b8154815290600101906020018083116105f357829003601f168201915b505050505081565b60025481565b60068054600181600116156101000203166002900480601f0160208091040260200160405190810160405280929190818152602001828054600181600116156101000203166002900480156106b45780601f10610689576101008083540402835291602001916106b4565b820191906000526020600020905b81548152906001019060200180831161069757829003601f168201915b505050505081565b600154600354106106f9576002600760006101000a81548160ff021916908360028111156106e657fe5b02179055506106f3610c27565b50610729565b600454421115610728576001600760006101000a81548160ff0219169083600281111561072257fe5b02179055505b5b42600281905550565b600080600281111561074057fe5b600760009054906101000a900460ff16600281111561075b57fe5b1461076557600080fd5b6000809054906101000a900473ffffffffffffffffffffffffffffffffffffffff1673ffffffffffffffffffffffffffffffffffffffff163373ffffffffffffffffffffffffffffffffffffffff1614156107bf57600080fd5b34600860003373ffffffffffffffffffffffffffffffffffffffff1673ffffffffffffffffffffffffffffffffffffffff1681526020019081526020016000205401600860003373ffffffffffffffffffffffffffffffffffffffff1673ffffffffffffffffffffffffffffffffffffffff1681526020019081526020016000208190555034600354016003819055507f5cdc4ab8d637538ead6cc1904d4160343656c8c82bd266635cfd31ac008fffe03334600354604051808473ffffffffffffffffffffffffffffffffffffffff1673ffffffffffffffffffffffffffffffffffffffff168152602001838152602001828152602001935050505060405180910390a16108cc6106bc565b50565b600060018060028111156108df57fe5b600760009054906101000a900460ff1660028111156108fa57fe5b1461090457600080fd5b6000600860003373ffffffffffffffffffffffffffffffffffffffff1673ffffffffffffffffffffffffffffffffffffffff168152602001908152602001600020541161095057600080fd5b6000600860003373ffffffffffffffffffffffffffffffffffffffff1673ffffffffffffffffffffffffffffffffffffffff1681526020019081526020016000205490506000600860003373ffffffffffffffffffffffffffffffffffffffff1673ffffffffffffffffffffffffffffffffffffffff168152602001908152602001600020819055503373ffffffffffffffffffffffffffffffffffffffff166108fc829081150290604051600060405180830381858888f1935050505015610a615780600860003373ffffffffffffffffffffffffffffffffffffffff1673ffffffffffffffffffffffffffffffffffffffff168152602001908152602001600020819055506000925050610a77565b8060036000828254039250508190555060019250505b5090565b600760009054906101000a900460ff1681565b60035481565b60006060806000806000806000809054906101000a900473ffffffffffffffffffffffffffffffffffffffff16965060058054600181600116156101000203166002900480601f016020809104026020016040519081016040528092919081815260200182805460018160011615610100020316600290048015610b595780601f10610b2e57610100808354040283529160200191610b59565b820191906000526020600020905b815481529060010190602001808311610b3c57829003601f168201915b5050505050955060068054600181600116156101000203166002900480601f016020809104026020016040519081016040528092919081815260200182805460018160011615610100020316600290048015610bf65780601f10610bcb57610100808354040283529160200191610bf6565b820191906000526020600020905b815481529060010190602001808311610bd957829003601f168201915b505050505094506004549350600760009054906101000a900460ff1692506003549150600154905090919293949596565b60006002806002811115610c3757fe5b600760009054906101000a900460ff166002811115610c5257fe5b14610c5c57600080fd5b6000600354905060006003819055506000809054906101000a900473ffffffffffffffffffffffffffffffffffffffff1673ffffffffffffffffffffffffffffffffffffffff166108fc829081150290604051600060405180830381858888f1935050505015610d54577f2f256415efc8561af8db667cb242964b19be7380f379ccdafaa0e54a6f6b70696000809054906101000a900473ffffffffffffffffffffffffffffffffffffffff16604051808273ffffffffffffffffffffffffffffffffffffffff1673ffffffffffffffffffffffffffffffffffffffff16815260200191505060405180910390a16001925050610d85565b806003819055506002600760006101000a81548160ff02191690836002811115610d7a57fe5b021790555060009250505b509056fea265627a7a72315820222c4d9120782f39dabb9c129c45c6c777275c63b33b8d615241ecc694500a2964736f6c63430005100032a265627a7a72315820dcb317821550e0f5f8459d82fb343fdb0f33815b44f9cb0039f30db45fd8929f64736f6c63430005100032",
  "source": "pragma solidity >=0.4.21;\r\n\r\ncontract CrowdFunding {\r\n  Project[] private projects;\r\n\r\n  event ProjectStarted(\r\n    address contractAddress,\r\n    address projectOwner,\r\n    string projectName,\r\n    string projectDesc,\r\n    uint256 deadline,\r\n    uint256 targetFund\r\n  );\r\n\r\n  function createProject(string calldata name, string calldata description, uint fundingDays, uint targetAmount) external {\r\n    uint deadline = block.timestamp + fundingDays * 86400 * 1000;\r\n    Project newProject = new Project(msg.sender, name, description, deadline, targetAmount);\r\n    projects.push(newProject);\r\n    emit ProjectStarted(\r\n        address(newProject),\r\n        msg.sender,\r\n        name,\r\n        description,\r\n        deadline,\r\n        targetAmount\r\n    );\r\n  }\r\n\r\n    /** @dev Function to get all projects' contract addresses.\r\n    * @return A list of all projects' contract addreses\r\n    */\r\n  function returnAllProjects() external view returns(Project[] memory){\r\n    return projects;\r\n  }\r\n}\r\n\r\ncontract Project {  \r\n  // Data structures\r\n  enum State {\r\n    Fundraising,\r\n    Expired,\r\n    Successful\r\n  }\r\n\r\n  // State variables\r\n  address payable public creator;\r\n  uint public amountGoal; // required to reach at least this much, else everyone gets refund\r\n  uint public completeAt;\r\n  uint256 public currentBalance;\r\n  uint public raiseBy;\r\n  string public title;\r\n  string public description;\r\n  State public state = State.Fundraising; // initialize on create\r\n  mapping (address => uint) public contributions;\r\n\r\n  // Event that will be emitted whenever funding will be received\r\n  event FundingReceived(address contributor, uint amount, uint currentTotal);\r\n  // Event that will be emitted whenever the project starter has received the funds\r\n  event CreatorPaid(address recipient);\r\n\r\n  // Modifier to check current state\r\n  modifier inState(State _state) {\r\n    require(state == _state);\r\n    _;\r\n  }\r\n\r\n  // Modifier to check if the function caller is the project creator\r\n  modifier isCreator() {\r\n    require(msg.sender == creator);\r\n    _;\r\n  }\r\n\r\n  constructor\r\n  (\r\n    address payable projectOwner,\r\n    string memory projectName,\r\n    string memory projectDesc,\r\n    uint fundingDeadline,\r\n    uint targetAmount\r\n  ) public {\r\n    creator = projectOwner;\r\n    title = projectName;\r\n    description = projectDesc;\r\n    amountGoal = targetAmount;\r\n    raiseBy = fundingDeadline;\r\n    currentBalance = 0;\r\n  }\r\n\r\n  function pledge() external inState(State.Fundraising) payable {\r\n      require(msg.sender != creator);\r\n      contributions[msg.sender] = contributions[msg.sender] + msg.value;\r\n      currentBalance = currentBalance +  msg.value;\r\n      emit FundingReceived(msg.sender, msg.value, currentBalance);\r\n      checkIfFundingCompleteOrExpired();\r\n  }\r\n\r\n  /** @dev Function to change the project state depending on conditions.\r\n    */\r\n  function checkIfFundingCompleteOrExpired() public {\r\n      if (currentBalance >= amountGoal) {\r\n          state = State.Successful;\r\n          payOut();\r\n      } else if (block.timestamp > raiseBy)  {\r\n          state = State.Expired;\r\n      }\r\n      completeAt = block.timestamp;\r\n  }\r\n\r\n  /** @dev Function to give the received funds to project starter.\r\n    */\r\n  function payOut() internal inState(State.Successful) returns (bool) {\r\n      uint256 totalRaised = currentBalance;\r\n      currentBalance = 0;\r\n\r\n      if (creator.send(totalRaised)) {\r\n          emit CreatorPaid(creator);\r\n          return true;\r\n      } else {\r\n          currentBalance = totalRaised;\r\n          state = State.Successful;\r\n      }\r\n\r\n      return false;\r\n  }\r\n\r\n  /** @dev Function to retrieve donated amount when a project expires.\r\n    */\r\n  function getRefund() public inState(State.Expired) returns (bool) {\r\n      require(contributions[msg.sender] > 0);\r\n\r\n      uint amountToRefund = contributions[msg.sender];\r\n      contributions[msg.sender] = 0;\r\n\r\n      if ((msg.sender).send(amountToRefund)) {\r\n          contributions[msg.sender] = amountToRefund;\r\n          return false;\r\n      } else {\r\n          currentBalance -= amountToRefund;\r\n      }\r\n\r\n      return true;\r\n  }\r\n\r\n  /** @dev Function to get specific information about the project.\r\n    * Returns all the project's details\r\n    */\r\n  function getDetails() public view returns \r\n  (\r\n      address payable projectStarter,\r\n      string memory projectTitle,\r\n      string memory projectDesc,\r\n      uint256 deadline,\r\n      State currentState,\r\n      uint256 currentAmount,\r\n      uint256 goalAmount\r\n  ) {\r\n      projectStarter = creator;\r\n      projectTitle = title;\r\n      projectDesc = description;\r\n      deadline = raiseBy;\r\n      currentState = state;\r\n      currentAmount = currentBalance;\r\n      goalAmount = amountGoal;\r\n  }\r\n}",
  "sourcePath": "C:/Users/Zhen Wei/OneDrive/Desktop/Blockchain Dev/crowd-fund/src/contracts/CrowdFunding.sol",
  "compiler": {
    "name": "solc",
    "version": "0.5.16+commit.9c3226ce.Emscripten.clang"
  },
  "schemaVersion": "3.4.1",
  "updatedAt": "2021-05-30T15:15:22.104Z",
  "devdoc": {
    "methods": {
      "returnAllProjects()": {
        "details": "Function to get all projects' contract addresses.",
        "return": "A list of all projects' contract addreses"
      }
    }
  },
  "userdoc": {
    "methods": {}
  }
}